{
  "_format": "hh-sol-artifact-1",
  "contractName": "StreamSwap",
  "sourceName": "contracts/StreamSwap.sol",
  "abi": [
    {
      "inputs": [
        {
          "internalType": "address",
          "name": "_token1",
          "type": "address"
        },
        {
          "internalType": "address",
          "name": "_token2",
          "type": "address"
        }
      ],
      "stateMutability": "nonpayable",
      "type": "constructor"
    },
    {
      "anonymous": false,
      "inputs": [
        {
          "indexed": true,
          "internalType": "address",
          "name": "owner",
          "type": "address"
        },
        {
          "indexed": true,
          "internalType": "address",
          "name": "spender",
          "type": "address"
        },
        {
          "indexed": false,
          "internalType": "uint256",
          "name": "value",
          "type": "uint256"
        }
      ],
      "name": "Approval",
      "type": "event"
    },
    {
      "anonymous": false,
      "inputs": [
        {
          "indexed": true,
          "internalType": "address",
          "name": "from",
          "type": "address"
        },
        {
          "indexed": true,
          "internalType": "address",
          "name": "to",
          "type": "address"
        },
        {
          "indexed": false,
          "internalType": "uint256",
          "name": "value",
          "type": "uint256"
        }
      ],
      "name": "Transfer",
      "type": "event"
    },
    {
      "inputs": [],
      "name": "DECIMALS_RATIO",
      "outputs": [
        {
          "internalType": "uint256",
          "name": "",
          "type": "uint256"
        }
      ],
      "stateMutability": "view",
      "type": "function"
    },
    {
      "inputs": [
        {
          "internalType": "uint256",
          "name": "_amountToken1",
          "type": "uint256"
        },
        {
          "internalType": "uint256",
          "name": "_amountToken2",
          "type": "uint256"
        }
      ],
      "name": "addInitialLiquidity",
      "outputs": [],
      "stateMutability": "nonpayable",
      "type": "function"
    },
    {
      "inputs": [
        {
          "internalType": "address",
          "name": "owner",
          "type": "address"
        },
        {
          "internalType": "address",
          "name": "spender",
          "type": "address"
        }
      ],
      "name": "allowance",
      "outputs": [
        {
          "internalType": "uint256",
          "name": "",
          "type": "uint256"
        }
      ],
      "stateMutability": "view",
      "type": "function"
    },
    {
      "inputs": [
        {
          "internalType": "address",
          "name": "spender",
          "type": "address"
        },
        {
          "internalType": "uint256",
          "name": "amount",
          "type": "uint256"
        }
      ],
      "name": "approve",
      "outputs": [
        {
          "internalType": "bool",
          "name": "",
          "type": "bool"
        }
      ],
      "stateMutability": "nonpayable",
      "type": "function"
    },
    {
      "inputs": [
        {
          "internalType": "address",
          "name": "account",
          "type": "address"
        }
      ],
      "name": "balanceOf",
      "outputs": [
        {
          "internalType": "uint256",
          "name": "",
          "type": "uint256"
        }
      ],
      "stateMutability": "view",
      "type": "function"
    },
    {
      "inputs": [],
      "name": "decimals",
      "outputs": [
        {
          "internalType": "uint8",
          "name": "",
          "type": "uint8"
        }
      ],
      "stateMutability": "view",
      "type": "function"
    },
    {
      "inputs": [
        {
          "internalType": "address",
          "name": "spender",
          "type": "address"
        },
        {
          "internalType": "uint256",
          "name": "subtractedValue",
          "type": "uint256"
        }
      ],
      "name": "decreaseAllowance",
      "outputs": [
        {
          "internalType": "bool",
          "name": "",
          "type": "bool"
        }
      ],
      "stateMutability": "nonpayable",
      "type": "function"
    },
    {
      "inputs": [],
      "name": "getLPTokens",
      "outputs": [
        {
          "internalType": "uint256",
          "name": "",
          "type": "uint256"
        }
      ],
      "stateMutability": "view",
      "type": "function"
    },
    {
      "inputs": [],
      "name": "getReserveToken1",
      "outputs": [
        {
          "internalType": "uint256",
          "name": "",
          "type": "uint256"
        }
      ],
      "stateMutability": "view",
      "type": "function"
    },
    {
      "inputs": [],
      "name": "getReserveToken2",
      "outputs": [
        {
          "internalType": "uint256",
          "name": "",
          "type": "uint256"
        }
      ],
      "stateMutability": "view",
      "type": "function"
    },
    {
      "inputs": [
        {
          "internalType": "address",
          "name": "spender",
          "type": "address"
        },
        {
          "internalType": "uint256",
          "name": "addedValue",
          "type": "uint256"
        }
      ],
      "name": "increaseAllowance",
      "outputs": [
        {
          "internalType": "bool",
          "name": "",
          "type": "bool"
        }
      ],
      "stateMutability": "nonpayable",
      "type": "function"
    },
    {
      "inputs": [],
      "name": "name",
      "outputs": [
        {
          "internalType": "string",
          "name": "",
          "type": "string"
        }
      ],
      "stateMutability": "view",
      "type": "function"
    },
    {
      "inputs": [],
      "name": "ratio",
      "outputs": [
        {
          "internalType": "uint256",
          "name": "",
          "type": "uint256"
        }
      ],
      "stateMutability": "view",
      "type": "function"
    },
    {
      "inputs": [],
      "name": "symbol",
      "outputs": [
        {
          "internalType": "string",
          "name": "",
          "type": "string"
        }
      ],
      "stateMutability": "view",
      "type": "function"
    },
    {
      "inputs": [],
      "name": "totalSupply",
      "outputs": [
        {
          "internalType": "uint256",
          "name": "",
          "type": "uint256"
        }
      ],
      "stateMutability": "view",
      "type": "function"
    },
    {
      "inputs": [
        {
          "internalType": "address",
          "name": "to",
          "type": "address"
        },
        {
          "internalType": "uint256",
          "name": "amount",
          "type": "uint256"
        }
      ],
      "name": "transfer",
      "outputs": [
        {
          "internalType": "bool",
          "name": "",
          "type": "bool"
        }
      ],
      "stateMutability": "nonpayable",
      "type": "function"
    },
    {
      "inputs": [
        {
          "internalType": "address",
          "name": "from",
          "type": "address"
        },
        {
          "internalType": "address",
          "name": "to",
          "type": "address"
        },
        {
          "internalType": "uint256",
          "name": "amount",
          "type": "uint256"
        }
      ],
      "name": "transferFrom",
      "outputs": [
        {
          "internalType": "bool",
          "name": "",
          "type": "bool"
        }
      ],
      "stateMutability": "nonpayable",
      "type": "function"
    }
  ],
  "bytecode": "0x60806040523480156200001157600080fd5b5060405162000eed38038062000eed833981016040819052620000349162000267565b60408051808201825260038082526253535760e81b60208084019182528451808601909552600e85526d053747265616d2053776170204c560941b90850152825192939262000085929190620001a4565b5080516200009b906004906020840190620001a4565b5050506001600160a01b0382166200010a5760405162461bcd60e51b815260206004820152602760248201527f546f6b656e312061646472657373207061737365642069732061206e756c6c206044820152666164647265737360c81b60648201526084015b60405180910390fd5b6001600160a01b038116620001725760405162461bcd60e51b815260206004820152602760248201527f546f6b656e322061646472657373207061737365642069732061206e756c6c206044820152666164647265737360c81b606482015260840162000101565b600580546001600160a01b039384166001600160a01b03199182161790915560068054929093169116179055620002db565b828054620001b2906200029e565b90600052602060002090601f016020900481019282620001d6576000855562000221565b82601f10620001f157805160ff191683800117855562000221565b8280016001018555821562000221579182015b828111156200022157825182559160200191906001019062000204565b506200022f92915062000233565b5090565b5b808211156200022f576000815560010162000234565b80516001600160a01b03811681146200026257600080fd5b919050565b600080604083850312156200027a578182fd5b62000285836200024a565b915062000295602084016200024a565b90509250929050565b600181811c90821680620002b357607f821691505b60208210811415620002d557634e487b7160e01b600052602260045260246000fd5b50919050565b610c0280620002eb6000396000f3fe608060405234801561001057600080fd5b506004361061011b5760003560e01c806370a08231116100b2578063a457c2d711610081578063d92fc57d11610066578063d92fc57d1461022c578063dd62ed3e14610236578063e09bafcf1461026f57600080fd5b8063a457c2d714610206578063a9059cbb1461021957600080fd5b806370a08231146101b757806371ca337d146101e057806395d89b41146101e9578063a40f4fa1146101f157600080fd5b806323b872dd116100ee57806323b872dd1461017a578063313ce5671461018d578063395093511461019c5780636d850399146101af57600080fd5b806306fdde0314610120578063095ea7b31461013e5780631224abfb1461016157806318160ddd14610172575b600080fd5b610128610277565b6040516101359190610ad1565b60405180910390f35b61015161014c366004610a6f565b610309565b6040519015158152602001610135565b60025b604051908152602001610135565b600254610164565b610151610188366004610a34565b610321565b60405160128152602001610135565b6101516101aa366004610a6f565b610345565b610164610384565b6101646101c53660046109e1565b6001600160a01b031660009081526020819052604090205490565b61016460075481565b610128610406565b6102046101ff366004610ab0565b610415565b005b610151610214366004610a6f565b61043f565b610151610227366004610a6f565b6104ee565b610164620f424081565b610164610244366004610a02565b6001600160a01b03918216600090815260016020908152604080832093909416825291909152205490565b6101646104fc565b60606003805461028690610b7b565b80601f01602080910402602001604051908101604052809291908181526020018280546102b290610b7b565b80156102ff5780601f106102d4576101008083540402835291602001916102ff565b820191906000526020600020905b8154815290600101906020018083116102e257829003601f168201915b5050505050905090565b60003361031781858561052d565b5060019392505050565b60003361032f858285610685565b61033a858585610717565b506001949350505050565b3360008181526001602090815260408083206001600160a01b0387168452909152812054909190610317908290869061037f908790610b24565b61052d565b6006546040516370a0823160e01b81523060048201526000916001600160a01b0316906370a08231906024015b60206040518083038186803b1580156103c957600080fd5b505afa1580156103dd573d6000803e3d6000fd5b505050506040513d601f19601f820116820180604052508101906104019190610a98565b905090565b60606004805461028690610b7b565b80610423620f424084610b5c565b61042d9190610b3c565b600781905561043b9061092e565b5050565b3360008181526001602090815260408083206001600160a01b0387168452909152812054909190838110156104e15760405162461bcd60e51b815260206004820152602560248201527f45524332303a2064656372656173656420616c6c6f77616e63652062656c6f7760448201527f207a65726f00000000000000000000000000000000000000000000000000000060648201526084015b60405180910390fd5b61033a828686840361052d565b600033610317818585610717565b6005546040516370a0823160e01b81523060048201526000916001600160a01b0316906370a08231906024016103b1565b6001600160a01b0383166105a85760405162461bcd60e51b8152602060048201526024808201527f45524332303a20617070726f76652066726f6d20746865207a65726f2061646460448201527f726573730000000000000000000000000000000000000000000000000000000060648201526084016104d8565b6001600160a01b0382166106245760405162461bcd60e51b815260206004820152602260248201527f45524332303a20617070726f766520746f20746865207a65726f20616464726560448201527f737300000000000000000000000000000000000000000000000000000000000060648201526084016104d8565b6001600160a01b0383811660008181526001602090815260408083209487168084529482529182902085905590518481527f8c5be1e5ebec7d5bd14f71427d1e84f3dd0314c0f7b2291e5b200ac8c7c3b925910160405180910390a3505050565b6001600160a01b03838116600090815260016020908152604080832093861683529290522054600019811461071157818110156107045760405162461bcd60e51b815260206004820152601d60248201527f45524332303a20696e73756666696369656e7420616c6c6f77616e636500000060448201526064016104d8565b610711848484840361052d565b50505050565b6001600160a01b0383166107935760405162461bcd60e51b815260206004820152602560248201527f45524332303a207472616e736665722066726f6d20746865207a65726f20616460448201527f647265737300000000000000000000000000000000000000000000000000000060648201526084016104d8565b6001600160a01b03821661080f5760405162461bcd60e51b815260206004820152602360248201527f45524332303a207472616e7366657220746f20746865207a65726f206164647260448201527f657373000000000000000000000000000000000000000000000000000000000060648201526084016104d8565b6001600160a01b0383166000908152602081905260409020548181101561089e5760405162461bcd60e51b815260206004820152602660248201527f45524332303a207472616e7366657220616d6f756e742065786365656473206260448201527f616c616e6365000000000000000000000000000000000000000000000000000060648201526084016104d8565b6001600160a01b038085166000908152602081905260408082208585039055918516815290812080548492906108d5908490610b24565b92505081905550826001600160a01b0316846001600160a01b03167fddf252ad1be2c89b69c2b068fc378daa952ba7f163c4a11628f55a4df523b3ef8460405161092191815260200190565b60405180910390a3610711565b6109a18160405160240161094491815260200190565b60408051601f198184030181529190526020810180517bffffffffffffffffffffffffffffffffffffffffffffffffffffffff167ff5b1bba9000000000000000000000000000000000000000000000000000000001790526109a4565b50565b80516a636f6e736f6c652e6c6f67602083016000808483855afa5050505050565b80356001600160a01b03811681146109dc57600080fd5b919050565b6000602082840312156109f2578081fd5b6109fb826109c5565b9392505050565b60008060408385031215610a14578081fd5b610a1d836109c5565b9150610a2b602084016109c5565b90509250929050565b600080600060608486031215610a48578081fd5b610a51846109c5565b9250610a5f602085016109c5565b9150604084013590509250925092565b60008060408385031215610a81578182fd5b610a8a836109c5565b946020939093013593505050565b600060208284031215610aa9578081fd5b5051919050565b60008060408385031215610ac2578182fd5b50508035926020909101359150565b6000602080835283518082850152825b81811015610afd57858101830151858201604001528201610ae1565b81811115610b0e5783604083870101525b50601f01601f1916929092016040019392505050565b60008219821115610b3757610b37610bb6565b500190565b600082610b5757634e487b7160e01b81526012600452602481fd5b500490565b6000816000190483118215151615610b7657610b76610bb6565b500290565b600181811c90821680610b8f57607f821691505b60208210811415610bb057634e487b7160e01b600052602260045260246000fd5b50919050565b634e487b7160e01b600052601160045260246000fdfea26469706673582212209245e8f3db1eed4755194513370b3c3667bb9bf1c597542d410bf9521710ecf864736f6c63430008040033",
  "linkReferences": {},
  "deployedLinkReferences": {}
}